{
	"data": {
		"bytecode": {
			"linkReferences": {},
			"object": "608060405234801561001057600080fd5b50610479806100206000396000f3fe608060405234801561001057600080fd5b50600436106100ea5760003560e01c8063966ff6501161008c578063c967f90f11610066578063c967f90f1461021b578063cd779d2114610239578063db78dd2814610257578063fca737c014610275576100ea565b8063966ff650146101c15780639d7714ce146101df578063be645692146101fd576100ea565b806337dbc8cc116100c857806337dbc8cc146101495780633a061bd31461016757806342127ee7146101855780636233be5d146101a3576100ea565b80630976c65d146100ef578063158ef93e1461010d5780631b5e358c1461012b575b600080fd5b6100f7610293565b6040516101049190610320565b60405180910390f35b6101156102a1565b6040516101229190610356565b60405180910390f35b6101336102b2565b60405161014091906103b2565b60405180910390f35b6101516102b8565b60405161015e9190610320565b60405180910390f35b61016f6102bd565b60405161017c91906103b2565b60405180910390f35b61018d6102c3565b60405161019a9190610320565b60405180910390f35b6101ab6102c9565b6040516101b891906103b2565b60405180910390f35b6101c96102cf565b6040516101d69190610320565b60405180910390f35b6101e76102d5565b6040516101f49190610320565b60405180910390f35b6102056102e4565b6040516102129190610320565b60405180910390f35b6102236102f1565b60405161023091906103ea565b60405180910390f35b6102416102f6565b60405161024e9190610320565b60405180910390f35b61025f6102fc565b60405161026c9190610428565b60405180910390f35b61027d610302565b60405161028a9190610320565b60405180910390f35b69152d02c7e14af680000081565b60008054906101000a900460ff1681565b61f00181565b600581565b61f00081565b61d6d881565b61f00281565b60015481565b6a0422ca8b0a00a42500000081565b6801bc16d674ec80000081565b601581565b619c4081565b61708081565b600081565b6000819050919050565b61031a81610307565b82525050565b60006020820190506103356000830184610311565b92915050565b60008115159050919050565b6103508161033b565b82525050565b600060208201905061036b6000830184610347565b92915050565b600073ffffffffffffffffffffffffffffffffffffffff82169050919050565b600061039c82610371565b9050919050565b6103ac81610391565b82525050565b60006020820190506103c760008301846103a3565b92915050565b600061ffff82169050919050565b6103e4816103cd565b82525050565b60006020820190506103ff60008301846103db565b92915050565b600067ffffffffffffffff82169050919050565b61042281610405565b82525050565b600060208201905061043d6000830184610419565b9291505056fea2646970667358221220924c990bc3b0d53170d7a6a113a2cf94feba69e00aca37827c944dacc889399e64736f6c63430008110033",
			"opcodes": "PUSH1 0x80 PUSH1 0x40 MSTORE CALLVALUE DUP1 ISZERO PUSH2 0x10 JUMPI PUSH1 0x0 DUP1 REVERT JUMPDEST POP PUSH2 0x479 DUP1 PUSH2 0x20 PUSH1 0x0 CODECOPY PUSH1 0x0 RETURN INVALID PUSH1 0x80 PUSH1 0x40 MSTORE CALLVALUE DUP1 ISZERO PUSH2 0x10 JUMPI PUSH1 0x0 DUP1 REVERT JUMPDEST POP PUSH1 0x4 CALLDATASIZE LT PUSH2 0xEA JUMPI PUSH1 0x0 CALLDATALOAD PUSH1 0xE0 SHR DUP1 PUSH4 0x966FF650 GT PUSH2 0x8C JUMPI DUP1 PUSH4 0xC967F90F GT PUSH2 0x66 JUMPI DUP1 PUSH4 0xC967F90F EQ PUSH2 0x21B JUMPI DUP1 PUSH4 0xCD779D21 EQ PUSH2 0x239 JUMPI DUP1 PUSH4 0xDB78DD28 EQ PUSH2 0x257 JUMPI DUP1 PUSH4 0xFCA737C0 EQ PUSH2 0x275 JUMPI PUSH2 0xEA JUMP JUMPDEST DUP1 PUSH4 0x966FF650 EQ PUSH2 0x1C1 JUMPI DUP1 PUSH4 0x9D7714CE EQ PUSH2 0x1DF JUMPI DUP1 PUSH4 0xBE645692 EQ PUSH2 0x1FD JUMPI PUSH2 0xEA JUMP JUMPDEST DUP1 PUSH4 0x37DBC8CC GT PUSH2 0xC8 JUMPI DUP1 PUSH4 0x37DBC8CC EQ PUSH2 0x149 JUMPI DUP1 PUSH4 0x3A061BD3 EQ PUSH2 0x167 JUMPI DUP1 PUSH4 0x42127EE7 EQ PUSH2 0x185 JUMPI DUP1 PUSH4 0x6233BE5D EQ PUSH2 0x1A3 JUMPI PUSH2 0xEA JUMP JUMPDEST DUP1 PUSH4 0x976C65D EQ PUSH2 0xEF JUMPI DUP1 PUSH4 0x158EF93E EQ PUSH2 0x10D JUMPI DUP1 PUSH4 0x1B5E358C EQ PUSH2 0x12B JUMPI JUMPDEST PUSH1 0x0 DUP1 REVERT JUMPDEST PUSH2 0xF7 PUSH2 0x293 JUMP JUMPDEST PUSH1 0x40 MLOAD PUSH2 0x104 SWAP2 SWAP1 PUSH2 0x320 JUMP JUMPDEST PUSH1 0x40 MLOAD DUP1 SWAP2 SUB SWAP1 RETURN JUMPDEST PUSH2 0x115 PUSH2 0x2A1 JUMP JUMPDEST PUSH1 0x40 MLOAD PUSH2 0x122 SWAP2 SWAP1 PUSH2 0x356 JUMP JUMPDEST PUSH1 0x40 MLOAD DUP1 SWAP2 SUB SWAP1 RETURN JUMPDEST PUSH2 0x133 PUSH2 0x2B2 JUMP JUMPDEST PUSH1 0x40 MLOAD PUSH2 0x140 SWAP2 SWAP1 PUSH2 0x3B2 JUMP JUMPDEST PUSH1 0x40 MLOAD DUP1 SWAP2 SUB SWAP1 RETURN JUMPDEST PUSH2 0x151 PUSH2 0x2B8 JUMP JUMPDEST PUSH1 0x40 MLOAD PUSH2 0x15E SWAP2 SWAP1 PUSH2 0x320 JUMP JUMPDEST PUSH1 0x40 MLOAD DUP1 SWAP2 SUB SWAP1 RETURN JUMPDEST PUSH2 0x16F PUSH2 0x2BD JUMP JUMPDEST PUSH1 0x40 MLOAD PUSH2 0x17C SWAP2 SWAP1 PUSH2 0x3B2 JUMP JUMPDEST PUSH1 0x40 MLOAD DUP1 SWAP2 SUB SWAP1 RETURN JUMPDEST PUSH2 0x18D PUSH2 0x2C3 JUMP JUMPDEST PUSH1 0x40 MLOAD PUSH2 0x19A SWAP2 SWAP1 PUSH2 0x320 JUMP JUMPDEST PUSH1 0x40 MLOAD DUP1 SWAP2 SUB SWAP1 RETURN JUMPDEST PUSH2 0x1AB PUSH2 0x2C9 JUMP JUMPDEST PUSH1 0x40 MLOAD PUSH2 0x1B8 SWAP2 SWAP1 PUSH2 0x3B2 JUMP JUMPDEST PUSH1 0x40 MLOAD DUP1 SWAP2 SUB SWAP1 RETURN JUMPDEST PUSH2 0x1C9 PUSH2 0x2CF JUMP JUMPDEST PUSH1 0x40 MLOAD PUSH2 0x1D6 SWAP2 SWAP1 PUSH2 0x320 JUMP JUMPDEST PUSH1 0x40 MLOAD DUP1 SWAP2 SUB SWAP1 RETURN JUMPDEST PUSH2 0x1E7 PUSH2 0x2D5 JUMP JUMPDEST PUSH1 0x40 MLOAD PUSH2 0x1F4 SWAP2 SWAP1 PUSH2 0x320 JUMP JUMPDEST PUSH1 0x40 MLOAD DUP1 SWAP2 SUB SWAP1 RETURN JUMPDEST PUSH2 0x205 PUSH2 0x2E4 JUMP JUMPDEST PUSH1 0x40 MLOAD PUSH2 0x212 SWAP2 SWAP1 PUSH2 0x320 JUMP JUMPDEST PUSH1 0x40 MLOAD DUP1 SWAP2 SUB SWAP1 RETURN JUMPDEST PUSH2 0x223 PUSH2 0x2F1 JUMP JUMPDEST PUSH1 0x40 MLOAD PUSH2 0x230 SWAP2 SWAP1 PUSH2 0x3EA JUMP JUMPDEST PUSH1 0x40 MLOAD DUP1 SWAP2 SUB SWAP1 RETURN JUMPDEST PUSH2 0x241 PUSH2 0x2F6 JUMP JUMPDEST PUSH1 0x40 MLOAD PUSH2 0x24E SWAP2 SWAP1 PUSH2 0x320 JUMP JUMPDEST PUSH1 0x40 MLOAD DUP1 SWAP2 SUB SWAP1 RETURN JUMPDEST PUSH2 0x25F PUSH2 0x2FC JUMP JUMPDEST PUSH1 0x40 MLOAD PUSH2 0x26C SWAP2 SWAP1 PUSH2 0x428 JUMP JUMPDEST PUSH1 0x40 MLOAD DUP1 SWAP2 SUB SWAP1 RETURN JUMPDEST PUSH2 0x27D PUSH2 0x302 JUMP JUMPDEST PUSH1 0x40 MLOAD PUSH2 0x28A SWAP2 SWAP1 PUSH2 0x320 JUMP JUMPDEST PUSH1 0x40 MLOAD DUP1 SWAP2 SUB SWAP1 RETURN JUMPDEST PUSH10 0x152D02C7E14AF6800000 DUP2 JUMP JUMPDEST PUSH1 0x0 DUP1 SLOAD SWAP1 PUSH2 0x100 EXP SWAP1 DIV PUSH1 0xFF AND DUP2 JUMP JUMPDEST PUSH2 0xF001 DUP2 JUMP JUMPDEST PUSH1 0x5 DUP2 JUMP JUMPDEST PUSH2 0xF000 DUP2 JUMP JUMPDEST PUSH2 0xD6D8 DUP2 JUMP JUMPDEST PUSH2 0xF002 DUP2 JUMP JUMPDEST PUSH1 0x1 SLOAD DUP2 JUMP JUMPDEST PUSH11 0x422CA8B0A00A425000000 DUP2 JUMP JUMPDEST PUSH9 0x1BC16D674EC800000 DUP2 JUMP JUMPDEST PUSH1 0x15 DUP2 JUMP JUMPDEST PUSH2 0x9C40 DUP2 JUMP JUMPDEST PUSH2 0x7080 DUP2 JUMP JUMPDEST PUSH1 0x0 DUP2 JUMP JUMPDEST PUSH1 0x0 DUP2 SWAP1 POP SWAP2 SWAP1 POP JUMP JUMPDEST PUSH2 0x31A DUP2 PUSH2 0x307 JUMP JUMPDEST DUP3 MSTORE POP POP JUMP JUMPDEST PUSH1 0x0 PUSH1 0x20 DUP3 ADD SWAP1 POP PUSH2 0x335 PUSH1 0x0 DUP4 ADD DUP5 PUSH2 0x311 JUMP JUMPDEST SWAP3 SWAP2 POP POP JUMP JUMPDEST PUSH1 0x0 DUP2 ISZERO ISZERO SWAP1 POP SWAP2 SWAP1 POP JUMP JUMPDEST PUSH2 0x350 DUP2 PUSH2 0x33B JUMP JUMPDEST DUP3 MSTORE POP POP JUMP JUMPDEST PUSH1 0x0 PUSH1 0x20 DUP3 ADD SWAP1 POP PUSH2 0x36B PUSH1 0x0 DUP4 ADD DUP5 PUSH2 0x347 JUMP JUMPDEST SWAP3 SWAP2 POP POP JUMP JUMPDEST PUSH1 0x0 PUSH20 0xFFFFFFFFFFFFFFFFFFFFFFFFFFFFFFFFFFFFFFFF DUP3 AND SWAP1 POP SWAP2 SWAP1 POP JUMP JUMPDEST PUSH1 0x0 PUSH2 0x39C DUP3 PUSH2 0x371 JUMP JUMPDEST SWAP1 POP SWAP2 SWAP1 POP JUMP JUMPDEST PUSH2 0x3AC DUP2 PUSH2 0x391 JUMP JUMPDEST DUP3 MSTORE POP POP JUMP JUMPDEST PUSH1 0x0 PUSH1 0x20 DUP3 ADD SWAP1 POP PUSH2 0x3C7 PUSH1 0x0 DUP4 ADD DUP5 PUSH2 0x3A3 JUMP JUMPDEST SWAP3 SWAP2 POP POP JUMP JUMPDEST PUSH1 0x0 PUSH2 0xFFFF DUP3 AND SWAP1 POP SWAP2 SWAP1 POP JUMP JUMPDEST PUSH2 0x3E4 DUP2 PUSH2 0x3CD JUMP JUMPDEST DUP3 MSTORE POP POP JUMP JUMPDEST PUSH1 0x0 PUSH1 0x20 DUP3 ADD SWAP1 POP PUSH2 0x3FF PUSH1 0x0 DUP4 ADD DUP5 PUSH2 0x3DB JUMP JUMPDEST SWAP3 SWAP2 POP POP JUMP JUMPDEST PUSH1 0x0 PUSH8 0xFFFFFFFFFFFFFFFF DUP3 AND SWAP1 POP SWAP2 SWAP1 POP JUMP JUMPDEST PUSH2 0x422 DUP2 PUSH2 0x405 JUMP JUMPDEST DUP3 MSTORE POP POP JUMP JUMPDEST PUSH1 0x0 PUSH1 0x20 DUP3 ADD SWAP1 POP PUSH2 0x43D PUSH1 0x0 DUP4 ADD DUP5 PUSH2 0x419 JUMP JUMPDEST SWAP3 SWAP2 POP POP JUMP INVALID LOG2 PUSH5 0x6970667358 0x22 SLT KECCAK256 SWAP3 0x4C SWAP10 SIGNEXTEND 0xC3 0xB0 0xD5 BALANCE PUSH17 0xD7A6A113A2CF94FEBA69E00ACA37827C94 0x4D 0xAC 0xC8 DUP10 CODECOPY SWAP15 PUSH5 0x736F6C6343 STOP ADDMOD GT STOP CALLER "
		},
		"gasEstimates": {
			"creation": {
				"codeDepositCost": "229000",
				"executionCost": "269",
				"totalCost": "229269"
			},
			"external": {
				"MaxValidators()": "357",
				"MinimalStakingCoin()": "396",
				"ProposalAddr()": "467",
				"PunishContractAddr()": "446",
				"StakingLockPeriod()": "401",
				"ValidatorContractAddr()": "423",
				"burnPartPercent()": "352",
				"burnStopAmount()": "374",
				"contractPartPercent()": "417",
				"initialized()": "2514",
				"minimumValidatorStaking()": "353",
				"stakerPartPercent()": "373",
				"totalBurnt()": "2452",
				"validatorPartPercent()": "396"
			}
		},
		"methodIdentifiers": {
			"MaxValidators()": "c967f90f",
			"MinimalStakingCoin()": "be645692",
			"ProposalAddr()": "6233be5d",
			"PunishContractAddr()": "1b5e358c",
			"StakingLockPeriod()": "db78dd28",
			"ValidatorContractAddr()": "3a061bd3",
			"burnPartPercent()": "37dbc8cc",
			"burnStopAmount()": "9d7714ce",
			"contractPartPercent()": "fca737c0",
			"initialized()": "158ef93e",
			"minimumValidatorStaking()": "0976c65d",
			"stakerPartPercent()": "cd779d21",
			"totalBurnt()": "966ff650",
			"validatorPartPercent()": "42127ee7"
		}
	},
	"abi": [
		{
			"inputs": [],
			"name": "MaxValidators",
			"outputs": [
				{
					"internalType": "uint16",
					"name": "",
					"type": "uint16"
				}
			],
			"stateMutability": "view",
			"type": "function"
		},
		{
			"inputs": [],
			"name": "MinimalStakingCoin",
			"outputs": [
				{
					"internalType": "uint256",
					"name": "",
					"type": "uint256"
				}
			],
			"stateMutability": "view",
			"type": "function"
		},
		{
			"inputs": [],
			"name": "ProposalAddr",
			"outputs": [
				{
					"internalType": "address",
					"name": "",
					"type": "address"
				}
			],
			"stateMutability": "view",
			"type": "function"
		},
		{
			"inputs": [],
			"name": "PunishContractAddr",
			"outputs": [
				{
					"internalType": "address",
					"name": "",
					"type": "address"
				}
			],
			"stateMutability": "view",
			"type": "function"
		},
		{
			"inputs": [],
			"name": "StakingLockPeriod",
			"outputs": [
				{
					"internalType": "uint64",
					"name": "",
					"type": "uint64"
				}
			],
			"stateMutability": "view",
			"type": "function"
		},
		{
			"inputs": [],
			"name": "ValidatorContractAddr",
			"outputs": [
				{
					"internalType": "address",
					"name": "",
					"type": "address"
				}
			],
			"stateMutability": "view",
			"type": "function"
		},
		{
			"inputs": [],
			"name": "burnPartPercent",
			"outputs": [
				{
					"internalType": "uint256",
					"name": "",
					"type": "uint256"
				}
			],
			"stateMutability": "view",
			"type": "function"
		},
		{
			"inputs": [],
			"name": "burnStopAmount",
			"outputs": [
				{
					"internalType": "uint256",
					"name": "",
					"type": "uint256"
				}
			],
			"stateMutability": "view",
			"type": "function"
		},
		{
			"inputs": [],
			"name": "contractPartPercent",
			"outputs": [
				{
					"internalType": "uint256",
					"name": "",
					"type": "uint256"
				}
			],
			"stateMutability": "view",
			"type": "function"
		},
		{
			"inputs": [],
			"name": "initialized",
			"outputs": [
				{
					"internalType": "bool",
					"name": "",
					"type": "bool"
				}
			],
			"stateMutability": "view",
			"type": "function"
		},
		{
			"inputs": [],
			"name": "minimumValidatorStaking",
			"outputs": [
				{
					"internalType": "uint256",
					"name": "",
					"type": "uint256"
				}
			],
			"stateMutability": "view",
			"type": "function"
		},
		{
			"inputs": [],
			"name": "stakerPartPercent",
			"outputs": [
				{
					"internalType": "uint256",
					"name": "",
					"type": "uint256"
				}
			],
			"stateMutability": "view",
			"type": "function"
		},
		{
			"inputs": [],
			"name": "totalBurnt",
			"outputs": [
				{
					"internalType": "uint256",
					"name": "",
					"type": "uint256"
				}
			],
			"stateMutability": "view",
			"type": "function"
		},
		{
			"inputs": [],
			"name": "validatorPartPercent",
			"outputs": [
				{
					"internalType": "uint256",
					"name": "",
					"type": "uint256"
				}
			],
			"stateMutability": "view",
			"type": "function"
		}
	]
}